{
  "_format": "hh-sol-artifact-1",
  "contractName": "ERC721MarketPlace",
  "sourceName": "contracts/ERC721MarketPlace.sol",
  "abi": [
    {
      "inputs": [
        {
          "internalType": "string",
          "name": "name",
          "type": "string"
        },
        {
          "internalType": "string",
          "name": "symbol",
          "type": "string"
        },
        {
          "internalType": "string",
          "name": "baseURI",
          "type": "string"
        },
        {
          "internalType": "uint256",
          "name": "maxSupply_",
          "type": "uint256"
        },
        {
          "internalType": "uint256",
          "name": "mintPrice_",
          "type": "uint256"
        }
      ],
      "stateMutability": "nonpayable",
      "type": "constructor"
    },
    {
      "anonymous": false,
      "inputs": [
        {
          "indexed": true,
          "internalType": "address",
          "name": "owner",
          "type": "address"
        },
        {
          "indexed": true,
          "internalType": "address",
          "name": "approved",
          "type": "address"
        },
        {
          "indexed": true,
          "internalType": "uint256",
          "name": "tokenId",
          "type": "uint256"
        }
      ],
      "name": "Approval",
      "type": "event"
    },
    {
      "anonymous": false,
      "inputs": [
        {
          "indexed": true,
          "internalType": "address",
          "name": "owner",
          "type": "address"
        },
        {
          "indexed": true,
          "internalType": "address",
          "name": "operator",
          "type": "address"
        },
        {
          "indexed": false,
          "internalType": "bool",
          "name": "approved",
          "type": "bool"
        }
      ],
      "name": "ApprovalForAll",
      "type": "event"
    },
    {
      "anonymous": false,
      "inputs": [
        {
          "indexed": true,
          "internalType": "uint256",
          "name": "tokenId",
          "type": "uint256"
        },
        {
          "indexed": false,
          "internalType": "uint256",
          "name": "value",
          "type": "uint256"
        },
        {
          "indexed": true,
          "internalType": "address",
          "name": "fromAddress",
          "type": "address"
        }
      ],
      "name": "TokenBidEntered",
      "type": "event"
    },
    {
      "anonymous": false,
      "inputs": [
        {
          "indexed": true,
          "internalType": "uint256",
          "name": "tokenId",
          "type": "uint256"
        },
        {
          "indexed": false,
          "internalType": "uint256",
          "name": "value",
          "type": "uint256"
        },
        {
          "indexed": true,
          "internalType": "address",
          "name": "fromAddress",
          "type": "address"
        }
      ],
      "name": "TokenBidWithdrawn",
      "type": "event"
    },
    {
      "anonymous": false,
      "inputs": [
        {
          "indexed": true,
          "internalType": "uint256",
          "name": "tokenId",
          "type": "uint256"
        },
        {
          "indexed": false,
          "internalType": "uint256",
          "name": "value",
          "type": "uint256"
        },
        {
          "indexed": true,
          "internalType": "address",
          "name": "fromAddress",
          "type": "address"
        },
        {
          "indexed": true,
          "internalType": "address",
          "name": "toAddress",
          "type": "address"
        }
      ],
      "name": "TokenBought",
      "type": "event"
    },
    {
      "anonymous": false,
      "inputs": [
        {
          "indexed": true,
          "internalType": "uint256",
          "name": "tokenId",
          "type": "uint256"
        }
      ],
      "name": "TokenNoLongerForSale",
      "type": "event"
    },
    {
      "anonymous": false,
      "inputs": [
        {
          "indexed": true,
          "internalType": "uint256",
          "name": "tokenId",
          "type": "uint256"
        },
        {
          "indexed": false,
          "internalType": "uint256",
          "name": "minValue",
          "type": "uint256"
        },
        {
          "indexed": true,
          "internalType": "address",
          "name": "toAddress",
          "type": "address"
        }
      ],
      "name": "TokenOffered",
      "type": "event"
    },
    {
      "anonymous": false,
      "inputs": [
        {
          "indexed": true,
          "internalType": "address",
          "name": "from",
          "type": "address"
        },
        {
          "indexed": true,
          "internalType": "address",
          "name": "to",
          "type": "address"
        },
        {
          "indexed": true,
          "internalType": "uint256",
          "name": "tokenId",
          "type": "uint256"
        }
      ],
      "name": "Transfer",
      "type": "event"
    },
    {
      "inputs": [
        {
          "internalType": "uint256",
          "name": "tokenId",
          "type": "uint256"
        },
        {
          "internalType": "uint256",
          "name": "minPrice",
          "type": "uint256"
        }
      ],
      "name": "acceptTokenBid",
      "outputs": [],
      "stateMutability": "nonpayable",
      "type": "function"
    },
    {
      "inputs": [
        {
          "internalType": "address",
          "name": "to",
          "type": "address"
        },
        {
          "internalType": "uint256",
          "name": "tokenId",
          "type": "uint256"
        }
      ],
      "name": "approve",
      "outputs": [],
      "stateMutability": "nonpayable",
      "type": "function"
    },
    {
      "inputs": [
        {
          "internalType": "address",
          "name": "owner",
          "type": "address"
        }
      ],
      "name": "balanceOf",
      "outputs": [
        {
          "internalType": "uint256",
          "name": "",
          "type": "uint256"
        }
      ],
      "stateMutability": "view",
      "type": "function"
    },
    {
      "inputs": [
        {
          "internalType": "uint256",
          "name": "",
          "type": "uint256"
        }
      ],
      "name": "bids",
      "outputs": [
        {
          "internalType": "bool",
          "name": "hasBid",
          "type": "bool"
        },
        {
          "internalType": "uint256",
          "name": "tokenId",
          "type": "uint256"
        },
        {
          "internalType": "address",
          "name": "bidder",
          "type": "address"
        },
        {
          "internalType": "uint256",
          "name": "value",
          "type": "uint256"
        }
      ],
      "stateMutability": "view",
      "type": "function"
    },
    {
      "inputs": [
        {
          "internalType": "uint256",
          "name": "tokenId",
          "type": "uint256"
        }
      ],
      "name": "buyToken",
      "outputs": [],
      "stateMutability": "payable",
      "type": "function"
    },
    {
      "inputs": [
        {
          "internalType": "uint256",
          "name": "tokenId",
          "type": "uint256"
        }
      ],
      "name": "enterTokenBid",
      "outputs": [],
      "stateMutability": "payable",
      "type": "function"
    },
    {
      "inputs": [
        {
          "internalType": "uint256",
          "name": "tokenId",
          "type": "uint256"
        }
      ],
      "name": "getApproved",
      "outputs": [
        {
          "internalType": "address",
          "name": "",
          "type": "address"
        }
      ],
      "stateMutability": "view",
      "type": "function"
    },
    {
      "inputs": [
        {
          "internalType": "address",
          "name": "owner",
          "type": "address"
        },
        {
          "internalType": "address",
          "name": "operator",
          "type": "address"
        }
      ],
      "name": "isApprovedForAll",
      "outputs": [
        {
          "internalType": "bool",
          "name": "",
          "type": "bool"
        }
      ],
      "stateMutability": "view",
      "type": "function"
    },
    {
      "inputs": [],
      "name": "maxSupply",
      "outputs": [
        {
          "internalType": "uint256",
          "name": "",
          "type": "uint256"
        }
      ],
      "stateMutability": "view",
      "type": "function"
    },
    {
      "inputs": [],
      "name": "mint",
      "outputs": [],
      "stateMutability": "payable",
      "type": "function"
    },
    {
      "inputs": [],
      "name": "name",
      "outputs": [
        {
          "internalType": "string",
          "name": "",
          "type": "string"
        }
      ],
      "stateMutability": "view",
      "type": "function"
    },
    {
      "inputs": [
        {
          "internalType": "uint256",
          "name": "tokenId",
          "type": "uint256"
        },
        {
          "internalType": "uint256",
          "name": "minSalePriceInWei",
          "type": "uint256"
        }
      ],
      "name": "offerTokenForSale",
      "outputs": [],
      "stateMutability": "nonpayable",
      "type": "function"
    },
    {
      "inputs": [
        {
          "internalType": "uint256",
          "name": "tokenId",
          "type": "uint256"
        },
        {
          "internalType": "uint256",
          "name": "minSalePriceInWei",
          "type": "uint256"
        },
        {
          "internalType": "address",
          "name": "toAddress",
          "type": "address"
        }
      ],
      "name": "offerTokenForSaleToAddress",
      "outputs": [],
      "stateMutability": "nonpayable",
      "type": "function"
    },
    {
      "inputs": [
        {
          "internalType": "uint256",
          "name": "",
          "type": "uint256"
        }
      ],
      "name": "offers",
      "outputs": [
        {
          "internalType": "bool",
          "name": "isForSale",
          "type": "bool"
        },
        {
          "internalType": "uint256",
          "name": "tokenId",
          "type": "uint256"
        },
        {
          "internalType": "address",
          "name": "seller",
          "type": "address"
        },
        {
          "internalType": "uint256",
          "name": "minValue",
          "type": "uint256"
        },
        {
          "internalType": "address",
          "name": "onlySellTo",
          "type": "address"
        }
      ],
      "stateMutability": "view",
      "type": "function"
    },
    {
      "inputs": [
        {
          "internalType": "uint256",
          "name": "tokenId",
          "type": "uint256"
        }
      ],
      "name": "ownerOf",
      "outputs": [
        {
          "internalType": "address",
          "name": "",
          "type": "address"
        }
      ],
      "stateMutability": "view",
      "type": "function"
    },
    {
      "inputs": [
        {
          "internalType": "address",
          "name": "",
          "type": "address"
        }
      ],
      "name": "pendingWithdrawals",
      "outputs": [
        {
          "internalType": "uint256",
          "name": "",
          "type": "uint256"
        }
      ],
      "stateMutability": "view",
      "type": "function"
    },
    {
      "inputs": [
        {
          "internalType": "address",
          "name": "from",
          "type": "address"
        },
        {
          "internalType": "address",
          "name": "to",
          "type": "address"
        },
        {
          "internalType": "uint256",
          "name": "tokenId",
          "type": "uint256"
        }
      ],
      "name": "safeTransferFrom",
      "outputs": [],
      "stateMutability": "nonpayable",
      "type": "function"
    },
    {
      "inputs": [
        {
          "internalType": "address",
          "name": "from",
          "type": "address"
        },
        {
          "internalType": "address",
          "name": "to",
          "type": "address"
        },
        {
          "internalType": "uint256",
          "name": "tokenId",
          "type": "uint256"
        },
        {
          "internalType": "bytes",
          "name": "_data",
          "type": "bytes"
        }
      ],
      "name": "safeTransferFrom",
      "outputs": [],
      "stateMutability": "nonpayable",
      "type": "function"
    },
    {
      "inputs": [
        {
          "internalType": "address",
          "name": "operator",
          "type": "address"
        },
        {
          "internalType": "bool",
          "name": "approved",
          "type": "bool"
        }
      ],
      "name": "setApprovalForAll",
      "outputs": [],
      "stateMutability": "nonpayable",
      "type": "function"
    },
    {
      "inputs": [
        {
          "internalType": "bytes4",
          "name": "interfaceId",
          "type": "bytes4"
        }
      ],
      "name": "supportsInterface",
      "outputs": [
        {
          "internalType": "bool",
          "name": "",
          "type": "bool"
        }
      ],
      "stateMutability": "view",
      "type": "function"
    },
    {
      "inputs": [],
      "name": "symbol",
      "outputs": [
        {
          "internalType": "string",
          "name": "",
          "type": "string"
        }
      ],
      "stateMutability": "view",
      "type": "function"
    },
    {
      "inputs": [
        {
          "internalType": "uint256",
          "name": "tokenId",
          "type": "uint256"
        }
      ],
      "name": "tokenNoLongerForSale",
      "outputs": [],
      "stateMutability": "nonpayable",
      "type": "function"
    },
    {
      "inputs": [
        {
          "internalType": "uint256",
          "name": "tokenId",
          "type": "uint256"
        }
      ],
      "name": "tokenURI",
      "outputs": [
        {
          "internalType": "string",
          "name": "",
          "type": "string"
        }
      ],
      "stateMutability": "view",
      "type": "function"
    },
    {
      "inputs": [],
      "name": "totalSupply",
      "outputs": [
        {
          "internalType": "uint256",
          "name": "",
          "type": "uint256"
        }
      ],
      "stateMutability": "view",
      "type": "function"
    },
    {
      "inputs": [
        {
          "internalType": "address",
          "name": "from",
          "type": "address"
        },
        {
          "internalType": "address",
          "name": "to",
          "type": "address"
        },
        {
          "internalType": "uint256",
          "name": "tokenId",
          "type": "uint256"
        }
      ],
      "name": "transferFrom",
      "outputs": [],
      "stateMutability": "nonpayable",
      "type": "function"
    },
    {
      "inputs": [
        {
          "internalType": "uint256",
          "name": "tokenId",
          "type": "uint256"
        }
      ],
      "name": "withdrawTokenBid",
      "outputs": [],
      "stateMutability": "nonpayable",
      "type": "function"
    }
  ],
  "bytecode": "0x60806040523480156200001157600080fd5b50604051620050943803806200509483398181016040528101906200003791906200032f565b8484816000908051906020019062000051929190620000a7565b5080600190805190602001906200006a929190620000a7565b505050826006908051906020019062000085929190620000a7565b5081600881905550806007819055506000600981905550505050505062000479565b828054620000b59062000443565b90600052602060002090601f016020900481019282620000d9576000855562000125565b82601f10620000f457805160ff191683800117855562000125565b8280016001018555821562000125579182015b828111156200012457825182559160200191906001019062000107565b5b50905062000134919062000138565b5090565b5b808211156200015357600081600090555060010162000139565b5090565b6000604051905090565b600080fd5b600080fd5b600080fd5b600080fd5b6000601f19601f8301169050919050565b7f4e487b7100000000000000000000000000000000000000000000000000000000600052604160045260246000fd5b620001c08262000175565b810181811067ffffffffffffffff82111715620001e257620001e162000186565b5b80604052505050565b6000620001f762000157565b9050620002058282620001b5565b919050565b600067ffffffffffffffff82111562000228576200022762000186565b5b620002338262000175565b9050602081019050919050565b60005b838110156200026057808201518184015260208101905062000243565b8381111562000270576000848401525b50505050565b60006200028d62000287846200020a565b620001eb565b905082815260208101848484011115620002ac57620002ab62000170565b5b620002b984828562000240565b509392505050565b600082601f830112620002d957620002d86200016b565b5b8151620002eb84826020860162000276565b91505092915050565b6000819050919050565b6200030981620002f4565b81146200031557600080fd5b50565b6000815190506200032981620002fe565b92915050565b600080600080600060a086880312156200034e576200034d62000161565b5b600086015167ffffffffffffffff8111156200036f576200036e62000166565b5b6200037d88828901620002c1565b955050602086015167ffffffffffffffff811115620003a157620003a062000166565b5b620003af88828901620002c1565b945050604086015167ffffffffffffffff811115620003d357620003d262000166565b5b620003e188828901620002c1565b9350506060620003f48882890162000318565b9250506080620004078882890162000318565b9150509295509295909350565b7f4e487b7100000000000000000000000000000000000000000000000000000000600052602260045260246000fd5b600060028204905060018216806200045c57607f821691505b6020821081141562000473576200047262000414565b5b50919050565b614c0b80620004896000396000f3fe6080604052600436106101815760003560e01c80636352211e116100d1578063c87b56dd1161008a578063d5abeb0111610064578063d5abeb011461056c578063e51ae7bd14610597578063e985e9c5146105c0578063f3f43703146105fd57610181565b8063c87b56dd146104dd578063ce6f3f291461051a578063cfdc31651461054357610181565b80636352211e146103a557806370a08231146103e25780638a72ea6a1461041f57806395d89b4114610460578063a22cb4651461048b578063b88d4fde146104b457610181565b806318160ddd1161013e5780632da94cd1116101185780632da94cd1146102f757806342842e0e146103205780634423c5f114610349578063561f4a701461038957610181565b806318160ddd1461028757806323b872dd146102b25780632d296bf1146102db57610181565b806301ffc9a71461018657806306fdde03146101c3578063081812fc146101ee578063095ea7b31461022b578063109e3b6c146102545780631249c58b1461027d575b600080fd5b34801561019257600080fd5b506101ad60048036038101906101a891906132d9565b61063a565b6040516101ba9190613321565b60405180910390f35b3480156101cf57600080fd5b506101d861071c565b6040516101e591906133d5565b60405180910390f35b3480156101fa57600080fd5b506102156004803603810190610210919061342d565b6107ae565b604051610222919061349b565b60405180910390f35b34801561023757600080fd5b50610252600480360381019061024d91906134e2565b610833565b005b34801561026057600080fd5b5061027b6004803603810190610276919061342d565b61094b565b005b6102856109cf565b005b34801561029357600080fd5b5061029c610a91565b6040516102a99190613531565b60405180910390f35b3480156102be57600080fd5b506102d960048036038101906102d4919061354c565b610a9b565b005b6102f560048036038101906102f0919061342d565b610afb565b005b34801561030357600080fd5b5061031e6004803603810190610319919061359f565b610f43565b005b34801561032c57600080fd5b506103476004803603810190610342919061354c565b61113d565b005b34801561035557600080fd5b50610370600480360381019061036b919061342d565b61115d565b60405161038094939291906135f2565b60405180910390f35b6103a3600480360381019061039e919061342d565b6111ba565b005b3480156103b157600080fd5b506103cc60048036038101906103c7919061342d565b611528565b6040516103d9919061349b565b60405180910390f35b3480156103ee57600080fd5b5061040960048036038101906104049190613637565b6115da565b6040516104169190613531565b60405180910390f35b34801561042b57600080fd5b506104466004803603810190610441919061342d565b611692565b604051610457959493929190613664565b60405180910390f35b34801561046c57600080fd5b50610475611715565b60405161048291906133d5565b60405180910390f35b34801561049757600080fd5b506104b260048036038101906104ad91906136e3565b6117a7565b005b3480156104c057600080fd5b506104db60048036038101906104d69190613858565b611928565b005b3480156104e957600080fd5b5061050460048036038101906104ff919061342d565b61198a565b60405161051191906133d5565b60405180910390f35b34801561052657600080fd5b50610541600480360381019061053c91906138db565b611a31565b005b34801561054f57600080fd5b5061056a600480360381019061056591906138db565b611dd8565b005b34801561057857600080fd5b50610581611fd3565b60405161058e9190613531565b60405180910390f35b3480156105a357600080fd5b506105be60048036038101906105b9919061342d565b611fdd565b005b3480156105cc57600080fd5b506105e760048036038101906105e2919061391b565b61232e565b6040516105f49190613321565b60405180910390f35b34801561060957600080fd5b50610624600480360381019061061f9190613637565b6123c2565b6040516106319190613531565b60405180910390f35b60007f80ac58cd000000000000000000000000000000000000000000000000000000007bffffffffffffffffffffffffffffffffffffffffffffffffffffffff1916827bffffffffffffffffffffffffffffffffffffffffffffffffffffffff1916148061070557507f5b5e139f000000000000000000000000000000000000000000000000000000007bffffffffffffffffffffffffffffffffffffffffffffffffffffffff1916827bffffffffffffffffffffffffffffffffffffffffffffffffffffffff1916145b806107155750610714826123da565b5b9050919050565b60606000805461072b9061398a565b80601f01602080910402602001604051908101604052809291908181526020018280546107579061398a565b80156107a45780601f10610779576101008083540402835291602001916107a4565b820191906000526020600020905b81548152906001019060200180831161078757829003601f168201915b5050505050905090565b60006107b982612444565b6107f8576040517f08c379a00000000000000000000000000000000000000000000000000000000081526004016107ef90613a2e565b60405180910390fd5b6004600083815260200190815260200160002060009054906101000a900473ffffffffffffffffffffffffffffffffffffffff169050919050565b600061083e82611528565b90508073ffffffffffffffffffffffffffffffffffffffff168373ffffffffffffffffffffffffffffffffffffffff1614156108af576040517f08c379a00000000000000000000000000000000000000000000000000000000081526004016108a690613ac0565b60405180910390fd5b8073ffffffffffffffffffffffffffffffffffffffff166108ce6124b0565b73ffffffffffffffffffffffffffffffffffffffff1614806108fd57506108fc816108f76124b0565b61232e565b5b61093c576040517f08c379a000000000000000000000000000000000000000000000000000000000815260040161093390613b52565b60405180910390fd5b61094683836124b8565b505050565b803373ffffffffffffffffffffffffffffffffffffffff1661096c82611528565b73ffffffffffffffffffffffffffffffffffffffff16146109c2576040517f08c379a00000000000000000000000000000000000000000000000000000000081526004016109b990613be4565b60405180910390fd5b6109cb82612571565b5050565b6109d7611fd3565b6109df610a91565b10610a1f576040517f08c379a0000000000000000000000000000000000000000000000000000000008152600401610a1690613c50565b60405180910390fd5b600754341015610a64576040517f08c379a0000000000000000000000000000000000000000000000000000000008152600401610a5b90613ce2565b60405180910390fd5b600160096000828254610a779190613d31565b92505081905550610a8f33610a8a610a91565b6126d1565b565b6000600954905090565b610aac610aa66124b0565b826126ef565b610aeb576040517f08c379a0000000000000000000000000000000000000000000000000000000008152600401610ae290613df9565b60405180910390fd5b610af68383836127cd565b505050565b80610b0581612444565b610b44576040517f08c379a0000000000000000000000000000000000000000000000000000000008152600401610b3b90613e8b565b60405180910390fd5b813373ffffffffffffffffffffffffffffffffffffffff16610b6582611528565b73ffffffffffffffffffffffffffffffffffffffff161415610bbc576040517f08c379a0000000000000000000000000000000000000000000000000000000008152600401610bb390613f1d565b60405180910390fd5b6000600a60008581526020019081526020016000206040518060a00160405290816000820160009054906101000a900460ff16151515158152602001600182015481526020016002820160009054906101000a900473ffffffffffffffffffffffffffffffffffffffff1673ffffffffffffffffffffffffffffffffffffffff1673ffffffffffffffffffffffffffffffffffffffff168152602001600382015481526020016004820160009054906101000a900473ffffffffffffffffffffffffffffffffffffffff1673ffffffffffffffffffffffffffffffffffffffff1673ffffffffffffffffffffffffffffffffffffffff168152505090508060000151610cfd576040517f08c379a0000000000000000000000000000000000000000000000000000000008152600401610cf490613f89565b60405180910390fd5b600073ffffffffffffffffffffffffffffffffffffffff16816080015173ffffffffffffffffffffffffffffffffffffffff161480610d6b57503373ffffffffffffffffffffffffffffffffffffffff16816080015173ffffffffffffffffffffffffffffffffffffffff16145b610daa576040517f08c379a0000000000000000000000000000000000000000000000000000000008152600401610da19061401b565b60405180910390fd5b8060600151341015610df1576040517f08c379a0000000000000000000000000000000000000000000000000000000008152600401610de8906140ad565b60405180910390fd5b610dfa84611528565b73ffffffffffffffffffffffffffffffffffffffff16816040015173ffffffffffffffffffffffffffffffffffffffff1614610e6b576040517f08c379a0000000000000000000000000000000000000000000000000000000008152600401610e629061413f565b60405180910390fd5b600081604001519050610e8f81338760405180602001604052806000815250612a29565b8073ffffffffffffffffffffffffffffffffffffffff166108fc349081150290604051600060405180830381858888f19350505050158015610ed5573d6000803e3d6000fd5b503373ffffffffffffffffffffffffffffffffffffffff168173ffffffffffffffffffffffffffffffffffffffff16867f377e353fc80cc9a7096ee573b2bb860f1001607f136816d3017f2da427b3d4e234604051610f349190613531565b60405180910390a45050505050565b823373ffffffffffffffffffffffffffffffffffffffff16610f6482611528565b73ffffffffffffffffffffffffffffffffffffffff1614610fba576040517f08c379a0000000000000000000000000000000000000000000000000000000008152600401610fb190613be4565b60405180910390fd5b6040518060a001604052806001151581526020018581526020013373ffffffffffffffffffffffffffffffffffffffff1681526020018481526020018373ffffffffffffffffffffffffffffffffffffffff16815250600a600086815260200190815260200160002060008201518160000160006101000a81548160ff0219169083151502179055506020820151816001015560408201518160020160006101000a81548173ffffffffffffffffffffffffffffffffffffffff021916908373ffffffffffffffffffffffffffffffffffffffff1602179055506060820151816003015560808201518160040160006101000a81548173ffffffffffffffffffffffffffffffffffffffff021916908373ffffffffffffffffffffffffffffffffffffffff1602179055509050508173ffffffffffffffffffffffffffffffffffffffff16847fe2e23cc3c22cf5ee571d706a9421200135e2dc6a08e1ead83ad0c7c7234ad2628560405161112f9190613531565b60405180910390a350505050565b61115883838360405180602001604052806000815250611928565b505050565b600b6020528060005260406000206000915090508060000160009054906101000a900460ff16908060010154908060020160009054906101000a900473ffffffffffffffffffffffffffffffffffffffff16908060030154905084565b806111c481612444565b611203576040517f08c379a00000000000000000000000000000000000000000000000000000000081526004016111fa90613e8b565b60405180910390fd5b813373ffffffffffffffffffffffffffffffffffffffff1661122482611528565b73ffffffffffffffffffffffffffffffffffffffff16141561127b576040517f08c379a000000000000000000000000000000000000000000000000000000000815260040161127290613f1d565b60405180910390fd5b600034116112be576040517f08c379a00000000000000000000000000000000000000000000000000000000081526004016112b5906141d1565b60405180910390fd5b6000600b60008581526020019081526020016000206040518060800160405290816000820160009054906101000a900460ff16151515158152602001600182015481526020016002820160009054906101000a900473ffffffffffffffffffffffffffffffffffffffff1673ffffffffffffffffffffffffffffffffffffffff1673ffffffffffffffffffffffffffffffffffffffff1681526020016003820154815250509050806060015134116113ab576040517f08c379a00000000000000000000000000000000000000000000000000000000081526004016113a290614263565b60405180910390fd5b60008160600151111561140857806040015173ffffffffffffffffffffffffffffffffffffffff166108fc82606001519081150290604051600060405180830381858888f19350505050158015611406573d6000803e3d6000fd5b505b60405180608001604052806001151581526020018581526020013373ffffffffffffffffffffffffffffffffffffffff16815260200134815250600b600086815260200190815260200160002060008201518160000160006101000a81548160ff0219169083151502179055506020820151816001015560408201518160020160006101000a81548173ffffffffffffffffffffffffffffffffffffffff021916908373ffffffffffffffffffffffffffffffffffffffff160217905550606082015181600301559050503373ffffffffffffffffffffffffffffffffffffffff16847fc1d75774a7bdefb6709aadb0adf59eba2ce73e91496f278d15b2fbb9e2bf057b3460405161151a9190613531565b60405180910390a350505050565b6000806002600084815260200190815260200160002060009054906101000a900473ffffffffffffffffffffffffffffffffffffffff169050600073ffffffffffffffffffffffffffffffffffffffff168173ffffffffffffffffffffffffffffffffffffffff1614156115d1576040517f08c379a00000000000000000000000000000000000000000000000000000000081526004016115c8906142f5565b60405180910390fd5b80915050919050565b60008073ffffffffffffffffffffffffffffffffffffffff168273ffffffffffffffffffffffffffffffffffffffff16141561164b576040517f08c379a000000000000000000000000000000000000000000000000000000000815260040161164290614387565b60405180910390fd5b600360008373ffffffffffffffffffffffffffffffffffffffff1673ffffffffffffffffffffffffffffffffffffffff168152602001908152602001600020549050919050565b600a6020528060005260406000206000915090508060000160009054906101000a900460ff16908060010154908060020160009054906101000a900473ffffffffffffffffffffffffffffffffffffffff16908060030154908060040160009054906101000a900473ffffffffffffffffffffffffffffffffffffffff16905085565b6060600180546117249061398a565b80601f01602080910402602001604051908101604052809291908181526020018280546117509061398a565b801561179d5780601f106117725761010080835404028352916020019161179d565b820191906000526020600020905b81548152906001019060200180831161178057829003601f168201915b5050505050905090565b6117af6124b0565b73ffffffffffffffffffffffffffffffffffffffff168273ffffffffffffffffffffffffffffffffffffffff16141561181d576040517f08c379a0000000000000000000000000000000000000000000000000000000008152600401611814906143f3565b60405180910390fd5b806005600061182a6124b0565b73ffffffffffffffffffffffffffffffffffffffff1673ffffffffffffffffffffffffffffffffffffffff16815260200190815260200160002060008473ffffffffffffffffffffffffffffffffffffffff1673ffffffffffffffffffffffffffffffffffffffff16815260200190815260200160002060006101000a81548160ff0219169083151502179055508173ffffffffffffffffffffffffffffffffffffffff166118d76124b0565b73ffffffffffffffffffffffffffffffffffffffff167f17307eab39ab6107e8899845ad3d59bd9653f200f220920489ca2b5937696c318360405161191c9190613321565b60405180910390a35050565b6119396119336124b0565b836126ef565b611978576040517f08c379a000000000000000000000000000000000000000000000000000000000815260040161196f90613df9565b60405180910390fd5b61198484848484612a29565b50505050565b606061199582612444565b6119d4576040517f08c379a00000000000000000000000000000000000000000000000000000000081526004016119cb90614485565b60405180910390fd5b60006119de612a85565b905060008151116119fe5760405180602001604052806000815250611a29565b80611a0884612b17565b604051602001611a199291906144e1565b6040516020818303038152906040525b915050919050565b813373ffffffffffffffffffffffffffffffffffffffff16611a5282611528565b73ffffffffffffffffffffffffffffffffffffffff1614611aa8576040517f08c379a0000000000000000000000000000000000000000000000000000000008152600401611a9f90613be4565b60405180910390fd5b60003390506000600b60008681526020019081526020016000206040518060800160405290816000820160009054906101000a900460ff16151515158152602001600182015481526020016002820160009054906101000a900473ffffffffffffffffffffffffffffffffffffffff1673ffffffffffffffffffffffffffffffffffffffff1673ffffffffffffffffffffffffffffffffffffffff16815260200160038201548152505090508060000151611b98576040517f08c379a0000000000000000000000000000000000000000000000000000000008152600401611b8f90614551565b60405180910390fd5b6000816060015111611bdf576040517f08c379a0000000000000000000000000000000000000000000000000000000008152600401611bd6906141d1565b60405180910390fd5b8381606001511015611c26576040517f08c379a0000000000000000000000000000000000000000000000000000000008152600401611c1d906145e3565b60405180910390fd5b6000816060015190506040518060800160405280600015158152602001878152602001600073ffffffffffffffffffffffffffffffffffffffff1681526020016000815250600b600088815260200190815260200160002060008201518160000160006101000a81548160ff0219169083151502179055506020820151816001015560408201518160020160006101000a81548173ffffffffffffffffffffffffffffffffffffffff021916908373ffffffffffffffffffffffffffffffffffffffff16021790555060608201518160030155905050611d1b8383604001518860405180602001604052806000815250612a29565b8273ffffffffffffffffffffffffffffffffffffffff166108fc829081150290604051600060405180830381858888f19350505050158015611d61573d6000803e3d6000fd5b50816040015173ffffffffffffffffffffffffffffffffffffffff168373ffffffffffffffffffffffffffffffffffffffff16877f377e353fc80cc9a7096ee573b2bb860f1001607f136816d3017f2da427b3d4e28560600151604051611dc89190613531565b60405180910390a4505050505050565b813373ffffffffffffffffffffffffffffffffffffffff16611df982611528565b73ffffffffffffffffffffffffffffffffffffffff1614611e4f576040517f08c379a0000000000000000000000000000000000000000000000000000000008152600401611e4690613be4565b60405180910390fd5b6040518060a001604052806001151581526020018481526020013373ffffffffffffffffffffffffffffffffffffffff168152602001838152602001600073ffffffffffffffffffffffffffffffffffffffff16815250600a600085815260200190815260200160002060008201518160000160006101000a81548160ff0219169083151502179055506020820151816001015560408201518160020160006101000a81548173ffffffffffffffffffffffffffffffffffffffff021916908373ffffffffffffffffffffffffffffffffffffffff1602179055506060820151816003015560808201518160040160006101000a81548173ffffffffffffffffffffffffffffffffffffffff021916908373ffffffffffffffffffffffffffffffffffffffff160217905550905050600073ffffffffffffffffffffffffffffffffffffffff16837fe2e23cc3c22cf5ee571d706a9421200135e2dc6a08e1ead83ad0c7c7234ad26284604051611fc69190613531565b60405180910390a3505050565b6000600854905090565b80611fe781612444565b612026576040517f08c379a000000000000000000000000000000000000000000000000000000000815260040161201d90613e8b565b60405180910390fd5b813373ffffffffffffffffffffffffffffffffffffffff1661204782611528565b73ffffffffffffffffffffffffffffffffffffffff16141561209e576040517f08c379a000000000000000000000000000000000000000000000000000000000815260040161209590613f1d565b60405180910390fd5b6000600b60008581526020019081526020016000206040518060800160405290816000820160009054906101000a900460ff16151515158152602001600182015481526020016002820160009054906101000a900473ffffffffffffffffffffffffffffffffffffffff1673ffffffffffffffffffffffffffffffffffffffff1673ffffffffffffffffffffffffffffffffffffffff16815260200160038201548152505090503373ffffffffffffffffffffffffffffffffffffffff16816040015173ffffffffffffffffffffffffffffffffffffffff16146121b7576040517f08c379a00000000000000000000000000000000000000000000000000000000081526004016121ae90614675565b60405180910390fd5b3373ffffffffffffffffffffffffffffffffffffffff16847fc88581a6532736290911df96b2fc58f3f2574dd003ce8b98f3196acf7ff79d0883606001516040516122029190613531565b60405180910390a36000816060015190506040518060800160405280600015158152602001868152602001600073ffffffffffffffffffffffffffffffffffffffff1681526020016000815250600b600087815260200190815260200160002060008201518160000160006101000a81548160ff0219169083151502179055506020820151816001015560408201518160020160006101000a81548173ffffffffffffffffffffffffffffffffffffffff021916908373ffffffffffffffffffffffffffffffffffffffff160217905550606082015181600301559050503373ffffffffffffffffffffffffffffffffffffffff166108fc829081150290604051600060405180830381858888f19350505050158015612326573d6000803e3d6000fd5b505050505050565b6000600560008473ffffffffffffffffffffffffffffffffffffffff1673ffffffffffffffffffffffffffffffffffffffff16815260200190815260200160002060008373ffffffffffffffffffffffffffffffffffffffff1673ffffffffffffffffffffffffffffffffffffffff16815260200190815260200160002060009054906101000a900460ff16905092915050565b600c6020528060005260406000206000915090505481565b60007f01ffc9a7000000000000000000000000000000000000000000000000000000007bffffffffffffffffffffffffffffffffffffffffffffffffffffffff1916827bffffffffffffffffffffffffffffffffffffffffffffffffffffffff1916149050919050565b60008073ffffffffffffffffffffffffffffffffffffffff166002600084815260200190815260200160002060009054906101000a900473ffffffffffffffffffffffffffffffffffffffff1673ffffffffffffffffffffffffffffffffffffffff1614159050919050565b600033905090565b816004600083815260200190815260200160002060006101000a81548173ffffffffffffffffffffffffffffffffffffffff021916908373ffffffffffffffffffffffffffffffffffffffff160217905550808273ffffffffffffffffffffffffffffffffffffffff1661252b83611528565b73ffffffffffffffffffffffffffffffffffffffff167f8c5be1e5ebec7d5bd14f71427d1e84f3dd0314c0f7b2291e5b200ac8c7c3b92560405160405180910390a45050565b6040518060a001604052806000151581526020018281526020013373ffffffffffffffffffffffffffffffffffffffff16815260200160008152602001600073ffffffffffffffffffffffffffffffffffffffff16815250600a600083815260200190815260200160002060008201518160000160006101000a81548160ff0219169083151502179055506020820151816001015560408201518160020160006101000a81548173ffffffffffffffffffffffffffffffffffffffff021916908373ffffffffffffffffffffffffffffffffffffffff1602179055506060820151816003015560808201518160040160006101000a81548173ffffffffffffffffffffffffffffffffffffffff021916908373ffffffffffffffffffffffffffffffffffffffff160217905550905050807f3f20d733f4a881f45c40b9e9b73a69bcad87d991a549ce686bdac4ef53a416c760405160405180910390a250565b6126eb828260405180602001604052806000815250612c78565b5050565b60006126fa82612444565b612739576040517f08c379a000000000000000000000000000000000000000000000000000000000815260040161273090614707565b60405180910390fd5b600061274483611528565b90508073ffffffffffffffffffffffffffffffffffffffff168473ffffffffffffffffffffffffffffffffffffffff1614806127b357508373ffffffffffffffffffffffffffffffffffffffff1661279b846107ae565b73ffffffffffffffffffffffffffffffffffffffff16145b806127c457506127c3818561232e565b5b91505092915050565b8273ffffffffffffffffffffffffffffffffffffffff166127ed82611528565b73ffffffffffffffffffffffffffffffffffffffff1614612843576040517f08c379a000000000000000000000000000000000000000000000000000000000815260040161283a90614799565b60405180910390fd5b600073ffffffffffffffffffffffffffffffffffffffff168273ffffffffffffffffffffffffffffffffffffffff1614156128b3576040517f08c379a00000000000000000000000000000000000000000000000000000000081526004016128aa9061482b565b60405180910390fd5b6128be838383612cd3565b6128c96000826124b8565b6001600360008573ffffffffffffffffffffffffffffffffffffffff1673ffffffffffffffffffffffffffffffffffffffff1681526020019081526020016000206000828254612919919061484b565b925050819055506001600360008473ffffffffffffffffffffffffffffffffffffffff1673ffffffffffffffffffffffffffffffffffffffff16815260200190815260200160002060008282546129709190613d31565b92505081905550816002600083815260200190815260200160002060006101000a81548173ffffffffffffffffffffffffffffffffffffffff021916908373ffffffffffffffffffffffffffffffffffffffff160217905550808273ffffffffffffffffffffffffffffffffffffffff168473ffffffffffffffffffffffffffffffffffffffff167fddf252ad1be2c89b69c2b068fc378daa952ba7f163c4a11628f55a4df523b3ef60405160405180910390a4505050565b612a348484846127cd565b612a4084848484612f04565b612a7f576040517f08c379a0000000000000000000000000000000000000000000000000000000008152600401612a76906148f1565b60405180910390fd5b50505050565b606060068054612a949061398a565b80601f0160208091040260200160405190810160405280929190818152602001828054612ac09061398a565b8015612b0d5780601f10612ae257610100808354040283529160200191612b0d565b820191906000526020600020905b815481529060010190602001808311612af057829003601f168201915b5050505050905090565b60606000821415612b5f576040518060400160405280600181526020017f30000000000000000000000000000000000000000000000000000000000000008152509050612c73565b600082905060005b60008214612b91578080612b7a90614911565b915050600a82612b8a9190614989565b9150612b67565b60008167ffffffffffffffff811115612bad57612bac61372d565b5b6040519080825280601f01601f191660200182016040528015612bdf5781602001600182028036833780820191505090505b5090505b60008514612c6c57600182612bf8919061484b565b9150600a85612c0791906149ba565b6030612c139190613d31565b60f81b818381518110612c2957612c286149eb565b5b60200101907effffffffffffffffffffffffffffffffffffffffffffffffffffffffffffff1916908160001a905350600a85612c659190614989565b9450612be3565b8093505050505b919050565b612c82838361308c565b612c8f6000848484612f04565b612cce576040517f08c379a0000000000000000000000000000000000000000000000000000000008152600401612cc5906148f1565b60405180910390fd5b505050565b600a600082815260200190815260200160002060000160009054906101000a900460ff1615612d0657612d0581612571565b5b6000600b60008381526020019081526020016000206040518060800160405290816000820160009054906101000a900460ff16151515158152602001600182015481526020016002820160009054906101000a900473ffffffffffffffffffffffffffffffffffffffff1673ffffffffffffffffffffffffffffffffffffffff1673ffffffffffffffffffffffffffffffffffffffff16815260200160038201548152505090508273ffffffffffffffffffffffffffffffffffffffff16816040015173ffffffffffffffffffffffffffffffffffffffff161415612efe578273ffffffffffffffffffffffffffffffffffffffff166108fc82606001519081150290604051600060405180830381858888f19350505050158015612e2f573d6000803e3d6000fd5b506040518060800160405280600015158152602001838152602001600073ffffffffffffffffffffffffffffffffffffffff1681526020016000815250600b600084815260200190815260200160002060008201518160000160006101000a81548160ff0219169083151502179055506020820151816001015560408201518160020160006101000a81548173ffffffffffffffffffffffffffffffffffffffff021916908373ffffffffffffffffffffffffffffffffffffffff160217905550606082015181600301559050505b50505050565b6000612f258473ffffffffffffffffffffffffffffffffffffffff1661325a565b1561307f578373ffffffffffffffffffffffffffffffffffffffff1663150b7a02612f4e6124b0565b8786866040518563ffffffff1660e01b8152600401612f709493929190614a6f565b6020604051808303816000875af1925050508015612fac57506040513d601f19601f82011682018060405250810190612fa99190614ad0565b60015b61302f573d8060008114612fdc576040519150601f19603f3d011682016040523d82523d6000602084013e612fe1565b606091505b50600081511415613027576040517f08c379a000000000000000000000000000000000000000000000000000000000815260040161301e906148f1565b60405180910390fd5b805181602001fd5b63150b7a0260e01b7bffffffffffffffffffffffffffffffffffffffffffffffffffffffff1916817bffffffffffffffffffffffffffffffffffffffffffffffffffffffff191614915050613084565b600190505b949350505050565b600073ffffffffffffffffffffffffffffffffffffffff168273ffffffffffffffffffffffffffffffffffffffff1614156130fc576040517f08c379a00000000000000000000000000000000000000000000000000000000081526004016130f390614b49565b60405180910390fd5b61310581612444565b15613145576040517f08c379a000000000000000000000000000000000000000000000000000000000815260040161313c90614bb5565b60405180910390fd5b61315160008383612cd3565b6001600360008473ffffffffffffffffffffffffffffffffffffffff1673ffffffffffffffffffffffffffffffffffffffff16815260200190815260200160002060008282546131a19190613d31565b92505081905550816002600083815260200190815260200160002060006101000a81548173ffffffffffffffffffffffffffffffffffffffff021916908373ffffffffffffffffffffffffffffffffffffffff160217905550808273ffffffffffffffffffffffffffffffffffffffff16600073ffffffffffffffffffffffffffffffffffffffff167fddf252ad1be2c89b69c2b068fc378daa952ba7f163c4a11628f55a4df523b3ef60405160405180910390a45050565b600080823b905060008111915050919050565b6000604051905090565b600080fd5b600080fd5b60007fffffffff0000000000000000000000000000000000000000000000000000000082169050919050565b6132b681613281565b81146132c157600080fd5b50565b6000813590506132d3816132ad565b92915050565b6000602082840312156132ef576132ee613277565b5b60006132fd848285016132c4565b91505092915050565b60008115159050919050565b61331b81613306565b82525050565b60006020820190506133366000830184613312565b92915050565b600081519050919050565b600082825260208201905092915050565b60005b8381101561337657808201518184015260208101905061335b565b83811115613385576000848401525b50505050565b6000601f19601f8301169050919050565b60006133a78261333c565b6133b18185613347565b93506133c1818560208601613358565b6133ca8161338b565b840191505092915050565b600060208201905081810360008301526133ef818461339c565b905092915050565b6000819050919050565b61340a816133f7565b811461341557600080fd5b50565b60008135905061342781613401565b92915050565b60006020828403121561344357613442613277565b5b600061345184828501613418565b91505092915050565b600073ffffffffffffffffffffffffffffffffffffffff82169050919050565b60006134858261345a565b9050919050565b6134958161347a565b82525050565b60006020820190506134b0600083018461348c565b92915050565b6134bf8161347a565b81146134ca57600080fd5b50565b6000813590506134dc816134b6565b92915050565b600080604083850312156134f9576134f8613277565b5b6000613507858286016134cd565b925050602061351885828601613418565b9150509250929050565b61352b816133f7565b82525050565b60006020820190506135466000830184613522565b92915050565b60008060006060848603121561356557613564613277565b5b6000613573868287016134cd565b9350506020613584868287016134cd565b925050604061359586828701613418565b9150509250925092565b6000806000606084860312156135b8576135b7613277565b5b60006135c686828701613418565b93505060206135d786828701613418565b92505060406135e8868287016134cd565b9150509250925092565b60006080820190506136076000830187613312565b6136146020830186613522565b613621604083018561348c565b61362e6060830184613522565b95945050505050565b60006020828403121561364d5761364c613277565b5b600061365b848285016134cd565b91505092915050565b600060a0820190506136796000830188613312565b6136866020830187613522565b613693604083018661348c565b6136a06060830185613522565b6136ad608083018461348c565b9695505050505050565b6136c081613306565b81146136cb57600080fd5b50565b6000813590506136dd816136b7565b92915050565b600080604083850312156136fa576136f9613277565b5b6000613708858286016134cd565b9250506020613719858286016136ce565b9150509250929050565b600080fd5b600080fd5b7f4e487b7100000000000000000000000000000000000000000000000000000000600052604160045260246000fd5b6137658261338b565b810181811067ffffffffffffffff821117156137845761378361372d565b5b80604052505050565b600061379761326d565b90506137a3828261375c565b919050565b600067ffffffffffffffff8211156137c3576137c261372d565b5b6137cc8261338b565b9050602081019050919050565b82818337600083830152505050565b60006137fb6137f6846137a8565b61378d565b90508281526020810184848401111561381757613816613728565b5b6138228482856137d9565b509392505050565b600082601f83011261383f5761383e613723565b5b813561384f8482602086016137e8565b91505092915050565b6000806000806080858703121561387257613871613277565b5b6000613880878288016134cd565b9450506020613891878288016134cd565b93505060406138a287828801613418565b925050606085013567ffffffffffffffff8111156138c3576138c261327c565b5b6138cf8782880161382a565b91505092959194509250565b600080604083850312156138f2576138f1613277565b5b600061390085828601613418565b925050602061391185828601613418565b9150509250929050565b6000806040838503121561393257613931613277565b5b6000613940858286016134cd565b9250506020613951858286016134cd565b9150509250929050565b7f4e487b7100000000000000000000000000000000000000000000000000000000600052602260045260246000fd5b600060028204905060018216806139a257607f821691505b602082108114156139b6576139b561395b565b5b50919050565b7f4552433732313a20617070726f76656420717565727920666f72206e6f6e657860008201527f697374656e7420746f6b656e0000000000000000000000000000000000000000602082015250565b6000613a18602c83613347565b9150613a23826139bc565b604082019050919050565b60006020820190508181036000830152613a4781613a0b565b9050919050565b7f4552433732313a20617070726f76616c20746f2063757272656e74206f776e6560008201527f7200000000000000000000000000000000000000000000000000000000000000602082015250565b6000613aaa602183613347565b9150613ab582613a4e565b604082019050919050565b60006020820190508181036000830152613ad981613a9d565b9050919050565b7f4552433732313a20617070726f76652063616c6c6572206973206e6f74206f7760008201527f6e6572206e6f7220617070726f76656420666f7220616c6c0000000000000000602082015250565b6000613b3c603883613347565b9150613b4782613ae0565b604082019050919050565b60006020820190508181036000830152613b6b81613b2f565b9050919050565b7f5468652063616c6c6572206973206e6f7420746865206f776e6572206f66207460008201527f686520746f6b656e210000000000000000000000000000000000000000000000602082015250565b6000613bce602983613347565b9150613bd982613b72565b604082019050919050565b60006020820190508181036000830152613bfd81613bc1565b9050919050565b7f416c6c20746f6b656e732068617665206265656e206d696e7465640000000000600082015250565b6000613c3a601b83613347565b9150613c4582613c04565b602082019050919050565b60006020820190508181036000830152613c6981613c2d565b9050919050565b7f5468652063616c6c657220646964206e6f742073656e6420656e6f756768206560008201527f7468657200000000000000000000000000000000000000000000000000000000602082015250565b6000613ccc602483613347565b9150613cd782613c70565b604082019050919050565b60006020820190508181036000830152613cfb81613cbf565b9050919050565b7f4e487b7100000000000000000000000000000000000000000000000000000000600052601160045260246000fd5b6000613d3c826133f7565b9150613d47836133f7565b9250827fffffffffffffffffffffffffffffffffffffffffffffffffffffffffffffffff03821115613d7c57613d7b613d02565b5b828201905092915050565b7f4552433732313a207472616e736665722063616c6c6572206973206e6f74206f60008201527f776e6572206e6f7220617070726f766564000000000000000000000000000000602082015250565b6000613de3603183613347565b9150613dee82613d87565b604082019050919050565b60006020820190508181036000830152613e1281613dd6565b9050919050565b7f54686520746f6b656e2065697468657220646f65736e2774206578697374206f60008201527f7220686173206e6f74206265656e206d696e7465642079657421000000000000602082015250565b6000613e75603a83613347565b9150613e8082613e19565b604082019050919050565b60006020820190508181036000830152613ea481613e68565b9050919050565b7f5468652063616c6c657220697320746865206f776e6572206f6620746865207460008201527f6f6b656e21000000000000000000000000000000000000000000000000000000602082015250565b6000613f07602583613347565b9150613f1282613eab565b604082019050919050565b60006020820190508181036000830152613f3681613efa565b9050919050565b7f54686520746f6b656e206973206e6f7420666f722073616c6500000000000000600082015250565b6000613f73601983613347565b9150613f7e82613f3d565b602082019050919050565b60006020820190508181036000830152613fa281613f66565b9050919050565b7f54686520746f6b656e206973206e6f7420666f722073616c6520746f2074686960008201527f732063616c6c6572000000000000000000000000000000000000000000000000602082015250565b6000614005602883613347565b915061401082613fa9565b604082019050919050565b6000602082019050818103600083015261403481613ff8565b9050919050565b7f5468652063616c6c657220646964206e6f742073656e6420656e6f756768204560008201527f5448000000000000000000000000000000000000000000000000000000000000602082015250565b6000614097602283613347565b91506140a28261403b565b604082019050919050565b600060208201905081810360008301526140c68161408a565b9050919050565b7f5468652073656c6c6572206973206e6f206c6f6e67657220746865206f776e6560008201527f72206f662074686520746f6b656e000000000000000000000000000000000000602082015250565b6000614129602e83613347565b9150614134826140cd565b604082019050919050565b600060208201905081810360008301526141588161411c565b9050919050565b7f546865206269642076616c75652068617320746f206265206d6f72652074686160008201527f6e20300000000000000000000000000000000000000000000000000000000000602082015250565b60006141bb602383613347565b91506141c68261415f565b604082019050919050565b600060208201905081810360008301526141ea816141ae565b9050919050565b7f546865206269642076616c75652068617320746f206265206d6f72652074686160008201527f6e20746865206c61737420626964000000000000000000000000000000000000602082015250565b600061424d602e83613347565b9150614258826141f1565b604082019050919050565b6000602082019050818103600083015261427c81614240565b9050919050565b7f4552433732313a206f776e657220717565727920666f72206e6f6e657869737460008201527f656e7420746f6b656e0000000000000000000000000000000000000000000000602082015250565b60006142df602983613347565b91506142ea82614283565b604082019050919050565b6000602082019050818103600083015261430e816142d2565b9050919050565b7f4552433732313a2062616c616e636520717565727920666f7220746865207a6560008201527f726f206164647265737300000000000000000000000000000000000000000000602082015250565b6000614371602a83613347565b915061437c82614315565b604082019050919050565b600060208201905081810360008301526143a081614364565b9050919050565b7f4552433732313a20617070726f766520746f2063616c6c657200000000000000600082015250565b60006143dd601983613347565b91506143e8826143a7565b602082019050919050565b6000602082019050818103600083015261440c816143d0565b9050919050565b7f4552433732314d657461646174613a2055524920717565727920666f72206e6f60008201527f6e6578697374656e7420746f6b656e0000000000000000000000000000000000602082015250565b600061446f602f83613347565b915061447a82614413565b604082019050919050565b6000602082019050818103600083015261449e81614462565b9050919050565b600081905092915050565b60006144bb8261333c565b6144c581856144a5565b93506144d5818560208601613358565b80840191505092915050565b60006144ed82856144b0565b91506144f982846144b0565b91508190509392505050565b7f54686520746f6b656e206173206e6f2061637469766520626964000000000000600082015250565b600061453b601a83613347565b915061454682614505565b602082019050919050565b6000602082019050818103600083015261456a8161452e565b9050919050565b7f546865206269642076616c75652068617320746f206265206d6f72652074686160008201527f6e20746865206d696e5072696365000000000000000000000000000000000000602082015250565b60006145cd602e83613347565b91506145d882614571565b604082019050919050565b600060208201905081810360008301526145fc816145c0565b9050919050565b7f5468652063616c6c6572206173206e6f2061637469766520626964206f6e207460008201527f68697320746f6b656e2100000000000000000000000000000000000000000000602082015250565b600061465f602a83613347565b915061466a82614603565b604082019050919050565b6000602082019050818103600083015261468e81614652565b9050919050565b7f4552433732313a206f70657261746f7220717565727920666f72206e6f6e657860008201527f697374656e7420746f6b656e0000000000000000000000000000000000000000602082015250565b60006146f1602c83613347565b91506146fc82614695565b604082019050919050565b60006020820190508181036000830152614720816146e4565b9050919050565b7f4552433732313a207472616e73666572206f6620746f6b656e2074686174206960008201527f73206e6f74206f776e0000000000000000000000000000000000000000000000602082015250565b6000614783602983613347565b915061478e82614727565b604082019050919050565b600060208201905081810360008301526147b281614776565b9050919050565b7f4552433732313a207472616e7366657220746f20746865207a65726f2061646460008201527f7265737300000000000000000000000000000000000000000000000000000000602082015250565b6000614815602483613347565b9150614820826147b9565b604082019050919050565b6000602082019050818103600083015261484481614808565b9050919050565b6000614856826133f7565b9150614861836133f7565b92508282101561487457614873613d02565b5b828203905092915050565b7f4552433732313a207472616e7366657220746f206e6f6e20455243373231526560008201527f63656976657220696d706c656d656e7465720000000000000000000000000000602082015250565b60006148db603283613347565b91506148e68261487f565b604082019050919050565b6000602082019050818103600083015261490a816148ce565b9050919050565b600061491c826133f7565b91507fffffffffffffffffffffffffffffffffffffffffffffffffffffffffffffffff82141561494f5761494e613d02565b5b600182019050919050565b7f4e487b7100000000000000000000000000000000000000000000000000000000600052601260045260246000fd5b6000614994826133f7565b915061499f836133f7565b9250826149af576149ae61495a565b5b828204905092915050565b60006149c5826133f7565b91506149d0836133f7565b9250826149e0576149df61495a565b5b828206905092915050565b7f4e487b7100000000000000000000000000000000000000000000000000000000600052603260045260246000fd5b600081519050919050565b600082825260208201905092915050565b6000614a4182614a1a565b614a4b8185614a25565b9350614a5b818560208601613358565b614a648161338b565b840191505092915050565b6000608082019050614a84600083018761348c565b614a91602083018661348c565b614a9e6040830185613522565b8181036060830152614ab08184614a36565b905095945050505050565b600081519050614aca816132ad565b92915050565b600060208284031215614ae657614ae5613277565b5b6000614af484828501614abb565b91505092915050565b7f4552433732313a206d696e7420746f20746865207a65726f2061646472657373600082015250565b6000614b33602083613347565b9150614b3e82614afd565b602082019050919050565b60006020820190508181036000830152614b6281614b26565b9050919050565b7f4552433732313a20746f6b656e20616c7265616479206d696e74656400000000600082015250565b6000614b9f601c83613347565b9150614baa82614b69565b602082019050919050565b60006020820190508181036000830152614bce81614b92565b905091905056fea264697066735822122057b7fb21149e4aa2f884ca9ee39034a3bf42f66c70163014f4e0ded7ebff589764736f6c634300080a0033",
  "linkReferences": {},
  "deployedLinkReferences": {}
}