{
  "_format": "hh-sol-artifact-1",
  "contractName": "ERC721MarketPlace",
  "sourceName": "contracts/ERC721MarketPlace.sol",
  "abi": [
    {
      "inputs": [
        {
          "internalType": "string",
          "name": "name",
          "type": "string"
        },
        {
          "internalType": "string",
          "name": "symbol",
          "type": "string"
        },
        {
          "internalType": "string",
          "name": "baseURI",
          "type": "string"
        },
        {
          "internalType": "uint256",
          "name": "maxSupply_",
          "type": "uint256"
        },
        {
          "internalType": "uint256",
          "name": "mintPrice_",
          "type": "uint256"
        },
        {
          "internalType": "uint256",
          "name": "royalties_",
          "type": "uint256"
        },
        {
          "internalType": "address",
          "name": "beneficiary_",
          "type": "address"
        }
      ],
      "stateMutability": "nonpayable",
      "type": "constructor"
    },
    {
      "anonymous": false,
      "inputs": [
        {
          "indexed": true,
          "internalType": "address",
          "name": "owner",
          "type": "address"
        },
        {
          "indexed": true,
          "internalType": "address",
          "name": "approved",
          "type": "address"
        },
        {
          "indexed": true,
          "internalType": "uint256",
          "name": "tokenId",
          "type": "uint256"
        }
      ],
      "name": "Approval",
      "type": "event"
    },
    {
      "anonymous": false,
      "inputs": [
        {
          "indexed": true,
          "internalType": "address",
          "name": "owner",
          "type": "address"
        },
        {
          "indexed": true,
          "internalType": "address",
          "name": "operator",
          "type": "address"
        },
        {
          "indexed": false,
          "internalType": "bool",
          "name": "approved",
          "type": "bool"
        }
      ],
      "name": "ApprovalForAll",
      "type": "event"
    },
    {
      "anonymous": false,
      "inputs": [
        {
          "indexed": true,
          "internalType": "uint256",
          "name": "tokenId",
          "type": "uint256"
        },
        {
          "indexed": false,
          "internalType": "uint256",
          "name": "value",
          "type": "uint256"
        },
        {
          "indexed": true,
          "internalType": "address",
          "name": "fromAddress",
          "type": "address"
        }
      ],
      "name": "TokenBidEntered",
      "type": "event"
    },
    {
      "anonymous": false,
      "inputs": [
        {
          "indexed": true,
          "internalType": "uint256",
          "name": "tokenId",
          "type": "uint256"
        },
        {
          "indexed": false,
          "internalType": "uint256",
          "name": "value",
          "type": "uint256"
        },
        {
          "indexed": true,
          "internalType": "address",
          "name": "fromAddress",
          "type": "address"
        }
      ],
      "name": "TokenBidWithdrawn",
      "type": "event"
    },
    {
      "anonymous": false,
      "inputs": [
        {
          "indexed": true,
          "internalType": "uint256",
          "name": "tokenId",
          "type": "uint256"
        },
        {
          "indexed": false,
          "internalType": "uint256",
          "name": "value",
          "type": "uint256"
        },
        {
          "indexed": true,
          "internalType": "address",
          "name": "fromAddress",
          "type": "address"
        },
        {
          "indexed": true,
          "internalType": "address",
          "name": "toAddress",
          "type": "address"
        }
      ],
      "name": "TokenBought",
      "type": "event"
    },
    {
      "anonymous": false,
      "inputs": [
        {
          "indexed": true,
          "internalType": "uint256",
          "name": "tokenId",
          "type": "uint256"
        }
      ],
      "name": "TokenNoLongerForSale",
      "type": "event"
    },
    {
      "anonymous": false,
      "inputs": [
        {
          "indexed": true,
          "internalType": "uint256",
          "name": "tokenId",
          "type": "uint256"
        },
        {
          "indexed": false,
          "internalType": "uint256",
          "name": "minValue",
          "type": "uint256"
        },
        {
          "indexed": true,
          "internalType": "address",
          "name": "toAddress",
          "type": "address"
        }
      ],
      "name": "TokenOffered",
      "type": "event"
    },
    {
      "anonymous": false,
      "inputs": [
        {
          "indexed": true,
          "internalType": "address",
          "name": "from",
          "type": "address"
        },
        {
          "indexed": true,
          "internalType": "address",
          "name": "to",
          "type": "address"
        },
        {
          "indexed": true,
          "internalType": "uint256",
          "name": "tokenId",
          "type": "uint256"
        }
      ],
      "name": "Transfer",
      "type": "event"
    },
    {
      "inputs": [
        {
          "internalType": "uint256",
          "name": "tokenId",
          "type": "uint256"
        },
        {
          "internalType": "uint256",
          "name": "minPrice",
          "type": "uint256"
        }
      ],
      "name": "acceptTokenBid",
      "outputs": [],
      "stateMutability": "nonpayable",
      "type": "function"
    },
    {
      "inputs": [
        {
          "internalType": "address",
          "name": "to",
          "type": "address"
        },
        {
          "internalType": "uint256",
          "name": "tokenId",
          "type": "uint256"
        }
      ],
      "name": "approve",
      "outputs": [],
      "stateMutability": "nonpayable",
      "type": "function"
    },
    {
      "inputs": [
        {
          "internalType": "address",
          "name": "owner",
          "type": "address"
        }
      ],
      "name": "balanceOf",
      "outputs": [
        {
          "internalType": "uint256",
          "name": "",
          "type": "uint256"
        }
      ],
      "stateMutability": "view",
      "type": "function"
    },
    {
      "inputs": [],
      "name": "beneficiary",
      "outputs": [
        {
          "internalType": "address",
          "name": "",
          "type": "address"
        }
      ],
      "stateMutability": "view",
      "type": "function"
    },
    {
      "inputs": [
        {
          "internalType": "uint256",
          "name": "",
          "type": "uint256"
        }
      ],
      "name": "bids",
      "outputs": [
        {
          "internalType": "bool",
          "name": "hasBid",
          "type": "bool"
        },
        {
          "internalType": "uint256",
          "name": "tokenId",
          "type": "uint256"
        },
        {
          "internalType": "address",
          "name": "bidder",
          "type": "address"
        },
        {
          "internalType": "uint256",
          "name": "value",
          "type": "uint256"
        }
      ],
      "stateMutability": "view",
      "type": "function"
    },
    {
      "inputs": [
        {
          "internalType": "uint256",
          "name": "tokenId",
          "type": "uint256"
        }
      ],
      "name": "buyToken",
      "outputs": [],
      "stateMutability": "payable",
      "type": "function"
    },
    {
      "inputs": [
        {
          "internalType": "uint256",
          "name": "tokenId",
          "type": "uint256"
        }
      ],
      "name": "enterTokenBid",
      "outputs": [],
      "stateMutability": "payable",
      "type": "function"
    },
    {
      "inputs": [
        {
          "internalType": "uint256",
          "name": "tokenId",
          "type": "uint256"
        }
      ],
      "name": "getApproved",
      "outputs": [
        {
          "internalType": "address",
          "name": "",
          "type": "address"
        }
      ],
      "stateMutability": "view",
      "type": "function"
    },
    {
      "inputs": [
        {
          "internalType": "address",
          "name": "owner",
          "type": "address"
        },
        {
          "internalType": "address",
          "name": "operator",
          "type": "address"
        }
      ],
      "name": "isApprovedForAll",
      "outputs": [
        {
          "internalType": "bool",
          "name": "",
          "type": "bool"
        }
      ],
      "stateMutability": "view",
      "type": "function"
    },
    {
      "inputs": [],
      "name": "maxSupply",
      "outputs": [
        {
          "internalType": "uint256",
          "name": "",
          "type": "uint256"
        }
      ],
      "stateMutability": "view",
      "type": "function"
    },
    {
      "inputs": [],
      "name": "mint",
      "outputs": [],
      "stateMutability": "payable",
      "type": "function"
    },
    {
      "inputs": [],
      "name": "name",
      "outputs": [
        {
          "internalType": "string",
          "name": "",
          "type": "string"
        }
      ],
      "stateMutability": "view",
      "type": "function"
    },
    {
      "inputs": [
        {
          "internalType": "uint256",
          "name": "tokenId",
          "type": "uint256"
        },
        {
          "internalType": "uint256",
          "name": "minSalePriceInWei",
          "type": "uint256"
        }
      ],
      "name": "offerTokenForSale",
      "outputs": [],
      "stateMutability": "nonpayable",
      "type": "function"
    },
    {
      "inputs": [
        {
          "internalType": "uint256",
          "name": "tokenId",
          "type": "uint256"
        },
        {
          "internalType": "uint256",
          "name": "minSalePriceInWei",
          "type": "uint256"
        },
        {
          "internalType": "address",
          "name": "toAddress",
          "type": "address"
        }
      ],
      "name": "offerTokenForSaleToAddress",
      "outputs": [],
      "stateMutability": "nonpayable",
      "type": "function"
    },
    {
      "inputs": [
        {
          "internalType": "uint256",
          "name": "",
          "type": "uint256"
        }
      ],
      "name": "offers",
      "outputs": [
        {
          "internalType": "bool",
          "name": "isForSale",
          "type": "bool"
        },
        {
          "internalType": "uint256",
          "name": "tokenId",
          "type": "uint256"
        },
        {
          "internalType": "address",
          "name": "seller",
          "type": "address"
        },
        {
          "internalType": "uint256",
          "name": "minValue",
          "type": "uint256"
        },
        {
          "internalType": "address",
          "name": "onlySellTo",
          "type": "address"
        }
      ],
      "stateMutability": "view",
      "type": "function"
    },
    {
      "inputs": [
        {
          "internalType": "uint256",
          "name": "tokenId",
          "type": "uint256"
        }
      ],
      "name": "ownerOf",
      "outputs": [
        {
          "internalType": "address",
          "name": "",
          "type": "address"
        }
      ],
      "stateMutability": "view",
      "type": "function"
    },
    {
      "inputs": [],
      "name": "royalties",
      "outputs": [
        {
          "internalType": "uint256",
          "name": "",
          "type": "uint256"
        }
      ],
      "stateMutability": "view",
      "type": "function"
    },
    {
      "inputs": [
        {
          "internalType": "address",
          "name": "from",
          "type": "address"
        },
        {
          "internalType": "address",
          "name": "to",
          "type": "address"
        },
        {
          "internalType": "uint256",
          "name": "tokenId",
          "type": "uint256"
        }
      ],
      "name": "safeTransferFrom",
      "outputs": [],
      "stateMutability": "nonpayable",
      "type": "function"
    },
    {
      "inputs": [
        {
          "internalType": "address",
          "name": "from",
          "type": "address"
        },
        {
          "internalType": "address",
          "name": "to",
          "type": "address"
        },
        {
          "internalType": "uint256",
          "name": "tokenId",
          "type": "uint256"
        },
        {
          "internalType": "bytes",
          "name": "_data",
          "type": "bytes"
        }
      ],
      "name": "safeTransferFrom",
      "outputs": [],
      "stateMutability": "nonpayable",
      "type": "function"
    },
    {
      "inputs": [
        {
          "internalType": "address",
          "name": "operator",
          "type": "address"
        },
        {
          "internalType": "bool",
          "name": "approved",
          "type": "bool"
        }
      ],
      "name": "setApprovalForAll",
      "outputs": [],
      "stateMutability": "nonpayable",
      "type": "function"
    },
    {
      "inputs": [
        {
          "internalType": "bytes4",
          "name": "interfaceId",
          "type": "bytes4"
        }
      ],
      "name": "supportsInterface",
      "outputs": [
        {
          "internalType": "bool",
          "name": "",
          "type": "bool"
        }
      ],
      "stateMutability": "view",
      "type": "function"
    },
    {
      "inputs": [],
      "name": "symbol",
      "outputs": [
        {
          "internalType": "string",
          "name": "",
          "type": "string"
        }
      ],
      "stateMutability": "view",
      "type": "function"
    },
    {
      "inputs": [
        {
          "internalType": "uint256",
          "name": "tokenId",
          "type": "uint256"
        }
      ],
      "name": "tokenNoLongerForSale",
      "outputs": [],
      "stateMutability": "nonpayable",
      "type": "function"
    },
    {
      "inputs": [
        {
          "internalType": "uint256",
          "name": "tokenId",
          "type": "uint256"
        }
      ],
      "name": "tokenURI",
      "outputs": [
        {
          "internalType": "string",
          "name": "",
          "type": "string"
        }
      ],
      "stateMutability": "view",
      "type": "function"
    },
    {
      "inputs": [],
      "name": "totalSupply",
      "outputs": [
        {
          "internalType": "uint256",
          "name": "",
          "type": "uint256"
        }
      ],
      "stateMutability": "view",
      "type": "function"
    },
    {
      "inputs": [
        {
          "internalType": "address",
          "name": "from",
          "type": "address"
        },
        {
          "internalType": "address",
          "name": "to",
          "type": "address"
        },
        {
          "internalType": "uint256",
          "name": "tokenId",
          "type": "uint256"
        }
      ],
      "name": "transferFrom",
      "outputs": [],
      "stateMutability": "nonpayable",
      "type": "function"
    },
    {
      "inputs": [
        {
          "internalType": "uint256",
          "name": "tokenId",
          "type": "uint256"
        }
      ],
      "name": "withdrawTokenBid",
      "outputs": [],
      "stateMutability": "nonpayable",
      "type": "function"
    }
  ],
  "bytecode": "0x6101006040523480156200001257600080fd5b50604051620031c0380380620031c0833981016040819052620000359162000215565b8651879087906200004e906000906020850190620000a2565b50805162000064906001906020840190620000a2565b505085516200007c91506006906020880190620000a2565b5060e09390935260c09190915260a0526001600160a01b03166080525062000325915050565b828054620000b090620002e8565b90600052602060002090601f016020900481019282620000d457600085556200011f565b82601f10620000ef57805160ff19168380011785556200011f565b828001600101855582156200011f579182015b828111156200011f57825182559160200191906001019062000102565b506200012d92915062000131565b5090565b5b808211156200012d576000815560010162000132565b634e487b7160e01b600052604160045260246000fd5b600082601f8301126200017057600080fd5b81516001600160401b03808211156200018d576200018d62000148565b604051601f8301601f19908116603f01168101908282118183101715620001b857620001b862000148565b81604052838152602092508683858801011115620001d557600080fd5b600091505b83821015620001f95785820183015181830184015290820190620001da565b838211156200020b5760008385830101525b9695505050505050565b600080600080600080600060e0888a0312156200023157600080fd5b87516001600160401b03808211156200024957600080fd5b620002578b838c016200015e565b985060208a01519150808211156200026e57600080fd5b6200027c8b838c016200015e565b975060408a01519150808211156200029357600080fd5b50620002a28a828b016200015e565b60608a015160808b015160a08c015160c08d01519399509197509550935090506001600160a01b0381168114620002d857600080fd5b8091505092959891949750929550565b600181811c90821680620002fd57607f821691505b602082108114156200031f57634e487b7160e01b600052602260045260246000fd5b50919050565b60805160a05160c05160e051612e3e620003826000396000818161057801526109b501526000610a26015260008181610614015281816122c701526122f201526000818161030b01528181610ac601526123310152612e3e6000f3fe6080604052600436106101ac5760003560e01c8063561f4a70116100ec578063c87b56dd1161008a578063d5abeb0111610064578063d5abeb0114610569578063e51ae7bd1461059c578063e985e9c5146105bc578063f053dc5c1461060557600080fd5b8063c87b56dd14610509578063ce6f3f2914610529578063cfdc31651461054957600080fd5b80638a72ea6a116100c65780638a72ea6a1461042557806395d89b41146104b4578063a22cb465146104c9578063b88d4fde146104e957600080fd5b8063561f4a70146103d25780636352211e146103e557806370a082311461040557600080fd5b806318160ddd116101595780632da94cd1116101335780632da94cd1146102dc57806338af3eed146102fc57806342842e0e1461032f5780634423c5f11461034f57600080fd5b806318160ddd1461028a57806323b872dd146102a95780632d296bf1146102c957600080fd5b8063095ea7b31161018a578063095ea7b314610240578063109e3b6c146102625780631249c58b1461028257600080fd5b806301ffc9a7146101b157806306fdde03146101e6578063081812fc14610208575b600080fd5b3480156101bd57600080fd5b506101d16101cc366004612954565b610638565b60405190151581526020015b60405180910390f35b3480156101f257600080fd5b506101fb6106d5565b6040516101dd91906129c9565b34801561021457600080fd5b506102286102233660046129dc565b610767565b6040516001600160a01b0390911681526020016101dd565b34801561024c57600080fd5b5061026061025b366004612a11565b610801565b005b34801561026e57600080fd5b5061026061027d3660046129dc565b610933565b6102606109b3565b34801561029657600080fd5b506007545b6040519081526020016101dd565b3480156102b557600080fd5b506102606102c4366004612a3b565b610b3c565b6102606102d73660046129dc565b610bc3565b3480156102e857600080fd5b506102606102f7366004612a77565b610f92565b34801561030857600080fd5b507f0000000000000000000000000000000000000000000000000000000000000000610228565b34801561033b57600080fd5b5061026061034a366004612a3b565b6110d1565b34801561035b57600080fd5b506103a161036a3660046129dc565b600960205260009081526040902080546001820154600283015460039093015460ff9092169290916001600160a01b039091169084565b6040516101dd9493929190931515845260208401929092526001600160a01b03166040830152606082015260800190565b6102606103e03660046129dc565b6110ec565b3480156103f157600080fd5b506102286104003660046129dc565b6113fd565b34801561041157600080fd5b5061029b610420366004612aac565b611488565b34801561043157600080fd5b5061047e6104403660046129dc565b6008602052600090815260409020805460018201546002830154600384015460049094015460ff9093169391926001600160a01b0391821692911685565b60408051951515865260208601949094526001600160a01b0392831693850193909352606084015216608082015260a0016101dd565b3480156104c057600080fd5b506101fb611522565b3480156104d557600080fd5b506102606104e4366004612ac7565b611531565b3480156104f557600080fd5b50610260610504366004612b19565b6115f6565b34801561051557600080fd5b506101fb6105243660046129dc565b611684565b34801561053557600080fd5b50610260610544366004612bf5565b61176d565b34801561055557600080fd5b50610260610564366004612bf5565b611a52565b34801561057557600080fd5b507f000000000000000000000000000000000000000000000000000000000000000061029b565b3480156105a857600080fd5b506102606105b73660046129dc565b611b8c565b3480156105c857600080fd5b506101d16105d7366004612c17565b6001600160a01b03918216600090815260056020908152604080832093909416825291909152205460ff1690565b34801561061157600080fd5b507f000000000000000000000000000000000000000000000000000000000000000061029b565b60006001600160e01b031982167f80ac58cd00000000000000000000000000000000000000000000000000000000148061069b57506001600160e01b031982167f5b5e139f00000000000000000000000000000000000000000000000000000000145b806106cf57507f01ffc9a7000000000000000000000000000000000000000000000000000000006001600160e01b03198316145b92915050565b6060600080546106e490612c4a565b80601f016020809104026020016040519081016040528092919081815260200182805461071090612c4a565b801561075d5780601f106107325761010080835404028352916020019161075d565b820191906000526020600020905b81548152906001019060200180831161074057829003601f168201915b5050505050905090565b6000818152600260205260408120546001600160a01b03166107e55760405162461bcd60e51b815260206004820152602c60248201527f4552433732313a20617070726f76656420717565727920666f72206e6f6e657860448201526b34b9ba32b73a103a37b5b2b760a11b60648201526084015b60405180910390fd5b506000908152600460205260409020546001600160a01b031690565b600061080c826113fd565b9050806001600160a01b0316836001600160a01b031614156108965760405162461bcd60e51b815260206004820152602160248201527f4552433732313a20617070726f76616c20746f2063757272656e74206f776e6560448201527f720000000000000000000000000000000000000000000000000000000000000060648201526084016107dc565b336001600160a01b03821614806108b257506108b281336105d7565b6109245760405162461bcd60e51b815260206004820152603860248201527f4552433732313a20617070726f76652063616c6c6572206973206e6f74206f7760448201527f6e6572206e6f7220617070726f76656420666f7220616c6c000000000000000060648201526084016107dc565b61092e8383611e38565b505050565b803361093e826113fd565b6001600160a01b0316146109a65760405162461bcd60e51b815260206004820152602960248201527f5468652063616c6c6572206973206e6f7420746865206f776e6572206f662074604482015268686520746f6b656e2160b81b60648201526084016107dc565b6109af82611ea6565b5050565b7f000000000000000000000000000000000000000000000000000000000000000060075410610a245760405162461bcd60e51b815260206004820152601b60248201527f416c6c20746f6b656e732068617665206265656e206d696e746564000000000060448201526064016107dc565b7f0000000000000000000000000000000000000000000000000000000000000000341015610ab95760405162461bcd60e51b8152602060048201526024808201527f5468652063616c6c657220646964206e6f742073656e6420656e6f756768206560448201527f746865720000000000000000000000000000000000000000000000000000000060648201526084016107dc565b6040516001600160a01b037f000000000000000000000000000000000000000000000000000000000000000016903480156108fc02916000818181858888f19350505050158015610b0e573d6000803e3d6000fd5b50600160076000828254610b229190612c9b565b90915550610b3a905033610b3560075490565b611f5c565b565b610b463382611f76565b610bb85760405162461bcd60e51b815260206004820152603160248201527f4552433732313a207472616e736665722063616c6c6572206973206e6f74206f60448201527f776e6572206e6f7220617070726f76656400000000000000000000000000000060648201526084016107dc565b61092e83838361206d565b60008181526002602052604090205481906001600160a01b0316610c4f5760405162461bcd60e51b815260206004820152603a60248201527f54686520746f6b656e2065697468657220646f65736e2774206578697374206f60448201527f7220686173206e6f74206265656e206d696e746564207965742100000000000060648201526084016107dc565b8133610c5a826113fd565b6001600160a01b03161415610cbf5760405162461bcd60e51b815260206004820152602560248201527f5468652063616c6c657220697320746865206f776e6572206f662074686520746044820152646f6b656e2160d81b60648201526084016107dc565b600083815260086020908152604091829020825160a081018452815460ff16151580825260018301549382019390935260028201546001600160a01b0390811694820194909452600382015460608201526004909101549092166080830152610d6a5760405162461bcd60e51b815260206004820152601960248201527f54686520746f6b656e206973206e6f7420666f722073616c650000000000000060448201526064016107dc565b60808101516001600160a01b03161580610d90575060808101516001600160a01b031633145b610e025760405162461bcd60e51b815260206004820152602860248201527f54686520746f6b656e206973206e6f7420666f722073616c6520746f2074686960448201527f732063616c6c657200000000000000000000000000000000000000000000000060648201526084016107dc565b8060600151341015610e7c5760405162461bcd60e51b815260206004820152602260248201527f5468652063616c6c657220646964206e6f742073656e6420656e6f756768204560448201527f544800000000000000000000000000000000000000000000000000000000000060648201526084016107dc565b610e85846113fd565b6001600160a01b031681604001516001600160a01b031614610f0f5760405162461bcd60e51b815260206004820152602e60248201527f5468652073656c6c6572206973206e6f206c6f6e67657220746865206f776e6560448201527f72206f662074686520746f6b656e00000000000000000000000000000000000060648201526084016107dc565b600081604001519050610f3381338760405180602001604052806000815250612245565b610f3d81346122c3565b336001600160a01b0316816001600160a01b0316867f377e353fc80cc9a7096ee573b2bb860f1001607f136816d3017f2da427b3d4e234604051610f8391815260200190565b60405180910390a45050505050565b8233610f9d826113fd565b6001600160a01b0316146110055760405162461bcd60e51b815260206004820152602960248201527f5468652063616c6c6572206973206e6f7420746865206f776e6572206f662074604482015268686520746f6b656e2160b81b60648201526084016107dc565b6040805160a0810182526001808252602080830188815233848601908152606085018981526001600160a01b038981166080880181815260008e8152600888528a90209851895460ff191690151517895594519688019690965591516002870180546001600160a01b031990811692851692909217905590516003870155915160049095018054909216941693909317909255915185815286917fe2e23cc3c22cf5ee571d706a9421200135e2dc6a08e1ead83ad0c7c7234ad26291015b60405180910390a350505050565b61092e838383604051806020016040528060008152506115f6565b60008181526002602052604090205481906001600160a01b03166111785760405162461bcd60e51b815260206004820152603a60248201527f54686520746f6b656e2065697468657220646f65736e2774206578697374206f60448201527f7220686173206e6f74206265656e206d696e746564207965742100000000000060648201526084016107dc565b8133611183826113fd565b6001600160a01b031614156111e85760405162461bcd60e51b815260206004820152602560248201527f5468652063616c6c657220697320746865206f776e6572206f662074686520746044820152646f6b656e2160d81b60648201526084016107dc565b600034116112445760405162461bcd60e51b815260206004820152602360248201527f546865206269642076616c75652068617320746f206265206d6f72652074686160448201526206e20360ec1b60648201526084016107dc565b6000838152600960209081526040918290208251608081018452815460ff161515815260018201549281019290925260028101546001600160a01b0316928201929092526003909101546060820181905234116113095760405162461bcd60e51b815260206004820152602e60248201527f546865206269642076616c75652068617320746f206265206d6f72652074686160448201527f6e20746865206c6173742062696400000000000000000000000000000000000060648201526084016107dc565b6060810151156113565780604001516001600160a01b03166108fc82606001519081150290604051600060405180830381858888f19350505050158015611354573d6000803e3d6000fd5b505b604080516080810182526001808252602080830188815233848601818152346060870181815260008d8152600987528990209751885460ff1916901515178855935195870195909555516002860180546001600160a01b0319166001600160a01b0390921691909117905590516003909401939093559251908152909186917fc1d75774a7bdefb6709aadb0adf59eba2ce73e91496f278d15b2fbb9e2bf057b91016110c3565b6000818152600260205260408120546001600160a01b0316806106cf5760405162461bcd60e51b815260206004820152602960248201527f4552433732313a206f776e657220717565727920666f72206e6f6e657869737460448201527f656e7420746f6b656e000000000000000000000000000000000000000000000060648201526084016107dc565b60006001600160a01b0382166115065760405162461bcd60e51b815260206004820152602a60248201527f4552433732313a2062616c616e636520717565727920666f7220746865207a6560448201527f726f20616464726573730000000000000000000000000000000000000000000060648201526084016107dc565b506001600160a01b031660009081526003602052604090205490565b6060600180546106e490612c4a565b6001600160a01b03821633141561158a5760405162461bcd60e51b815260206004820152601960248201527f4552433732313a20617070726f766520746f2063616c6c65720000000000000060448201526064016107dc565b3360008181526005602090815260408083206001600160a01b03871680855290835292819020805460ff191686151590811790915590519081529192917f17307eab39ab6107e8899845ad3d59bd9653f200f220920489ca2b5937696c31910160405180910390a35050565b6116003383611f76565b6116725760405162461bcd60e51b815260206004820152603160248201527f4552433732313a207472616e736665722063616c6c6572206973206e6f74206f60448201527f776e6572206e6f7220617070726f76656400000000000000000000000000000060648201526084016107dc565b61167e84848484612245565b50505050565b6000818152600260205260409020546060906001600160a01b03166117115760405162461bcd60e51b815260206004820152602f60248201527f4552433732314d657461646174613a2055524920717565727920666f72206e6f60448201527f6e6578697374656e7420746f6b656e000000000000000000000000000000000060648201526084016107dc565b600061171b6123bb565b9050600081511161173b5760405180602001604052806000815250611766565b80611745846123ca565b604051602001611756929190612cb3565b6040516020818303038152906040525b9392505050565b8133611778826113fd565b6001600160a01b0316146117e05760405162461bcd60e51b815260206004820152602960248201527f5468652063616c6c6572206973206e6f7420746865206f776e6572206f662074604482015268686520746f6b656e2160b81b60648201526084016107dc565b6000838152600960209081526040918290208251608081018452815460ff16151580825260018301549382019390935260028201546001600160a01b03169381019390935260030154606083015233919061187d5760405162461bcd60e51b815260206004820152601a60248201527f54686520746f6b656e206173206e6f206163746976652062696400000000000060448201526064016107dc565b60008160600151116118dd5760405162461bcd60e51b815260206004820152602360248201527f546865206269642076616c75652068617320746f206265206d6f72652074686160448201526206e20360ec1b60648201526084016107dc565b83816060015110156119575760405162461bcd60e51b815260206004820152602e60248201527f546865206269642076616c75652068617320746f206265206d6f72652074686160448201527f6e20746865206d696e507269636500000000000000000000000000000000000060648201526084016107dc565b60608181015160408051608081018252600080825260208083018b81528385018381529684018381528c8452600983528584209451855460ff19169015151785559051600185015595516002840180546001600160a01b0319166001600160a01b039092169190911790559451600390920191909155818501518251948501909252835290916119ea9185918990612245565b6119f483826122c3565b81604001516001600160a01b0316836001600160a01b0316877f377e353fc80cc9a7096ee573b2bb860f1001607f136816d3017f2da427b3d4e28560600151604051611a4291815260200190565b60405180910390a4505050505050565b8133611a5d826113fd565b6001600160a01b031614611ac55760405162461bcd60e51b815260206004820152602960248201527f5468652063616c6c6572206973206e6f7420746865206f776e6572206f662074604482015268686520746f6b656e2160b81b60648201526084016107dc565b6040805160a0810182526001808252602080830187815233848601908152606085018881526000608087018181528b8252600886528882209751885460ff191690151517885593519587019590955590516002860180546001600160a01b03199081166001600160a01b0393841617909155915160038701559151600490950180549091169490911693909317909255915184815285917fe2e23cc3c22cf5ee571d706a9421200135e2dc6a08e1ead83ad0c7c7234ad262910160405180910390a3505050565b60008181526002602052604090205481906001600160a01b0316611c185760405162461bcd60e51b815260206004820152603a60248201527f54686520746f6b656e2065697468657220646f65736e2774206578697374206f60448201527f7220686173206e6f74206265656e206d696e746564207965742100000000000060648201526084016107dc565b8133611c23826113fd565b6001600160a01b03161415611c885760405162461bcd60e51b815260206004820152602560248201527f5468652063616c6c657220697320746865206f776e6572206f662074686520746044820152646f6b656e2160d81b60648201526084016107dc565b6000838152600960209081526040918290208251608081018452815460ff161515815260018201549281019290925260028101546001600160a01b0316928201839052600301546060820152903314611d495760405162461bcd60e51b815260206004820152602a60248201527f5468652063616c6c6572206173206e6f2061637469766520626964206f6e207460448201527f68697320746f6b656e210000000000000000000000000000000000000000000060648201526084016107dc565b336001600160a01b0316847fc88581a6532736290911df96b2fc58f3f2574dd003ce8b98f3196acf7ff79d088360600151604051611d8991815260200190565b60405180910390a360608181015160408051608081018252600080825260208083018a81528385018381529684018381528b845260099092528483209351845460ff191690151517845551600184015594516002830180546001600160a01b0319166001600160a01b03909216919091179055935160039091015551909133916108fc84150291849190818181858888f19350505050158015611e30573d6000803e3d6000fd5b505050505050565b600081815260046020526040902080546001600160a01b0319166001600160a01b0384169081179091558190611e6d826113fd565b6001600160a01b03167f8c5be1e5ebec7d5bd14f71427d1e84f3dd0314c0f7b2291e5b200ac8c7c3b92560405160405180910390a45050565b6040805160a0810182526000808252602080830185815233848601908152606085018481526080860185815288865260089094528685209551865460ff191690151517865591516001860155516002850180546001600160a01b03199081166001600160a01b0393841617909155915160038601559151600490940180549091169390911692909217909155905182917f3f20d733f4a881f45c40b9e9b73a69bcad87d991a549ce686bdac4ef53a416c791a250565b6109af8282604051806020016040528060008152506124fc565b6000818152600260205260408120546001600160a01b0316611fef5760405162461bcd60e51b815260206004820152602c60248201527f4552433732313a206f70657261746f7220717565727920666f72206e6f6e657860448201526b34b9ba32b73a103a37b5b2b760a11b60648201526084016107dc565b6000611ffa836113fd565b9050806001600160a01b0316846001600160a01b031614806120355750836001600160a01b031661202a84610767565b6001600160a01b0316145b8061206557506001600160a01b0380821660009081526005602090815260408083209388168352929052205460ff165b949350505050565b826001600160a01b0316612080826113fd565b6001600160a01b0316146120fc5760405162461bcd60e51b815260206004820152602960248201527f4552433732313a207472616e73666572206f6620746f6b656e2074686174206960448201527f73206e6f74206f776e000000000000000000000000000000000000000000000060648201526084016107dc565b6001600160a01b0382166121775760405162461bcd60e51b8152602060048201526024808201527f4552433732313a207472616e7366657220746f20746865207a65726f2061646460448201527f726573730000000000000000000000000000000000000000000000000000000060648201526084016107dc565b61218283838361257a565b61218d600082611e38565b6001600160a01b03831660009081526003602052604081208054600192906121b6908490612d0a565b90915550506001600160a01b03821660009081526003602052604081208054600192906121e4908490612c9b565b909155505060008181526002602052604080822080546001600160a01b0319166001600160a01b0386811691821790925591518493918716917fddf252ad1be2c89b69c2b068fc378daa952ba7f163c4a11628f55a4df523b3ef91a4505050565b61225084848461206d565b61225c848484846126a4565b61167e5760405162461bcd60e51b815260206004820152603260248201527f4552433732313a207472616e7366657220746f206e6f6e20455243373231526560448201527131b2b4bb32b91034b6b83632b6b2b73a32b960711b60648201526084016107dc565b60007f00000000000000000000000000000000000000000000000000000000000000001561237c5760646123177f000000000000000000000000000000000000000000000000000000000000000084612d21565b6123219190612d56565b6040519091506001600160a01b037f0000000000000000000000000000000000000000000000000000000000000000169082156108fc029083906000818181858888f1935050505015801561237a573d6000803e3d6000fd5b505b6001600160a01b0383166108fc6123938385612d0a565b6040518115909202916000818181858888f1935050505015801561167e573d6000803e3d6000fd5b6060600680546106e490612c4a565b60608161240a57505060408051808201909152600181527f3000000000000000000000000000000000000000000000000000000000000000602082015290565b8160005b8115612434578061241e81612d6a565b915061242d9050600a83612d56565b915061240e565b60008167ffffffffffffffff81111561244f5761244f612b03565b6040519080825280601f01601f191660200182016040528015612479576020820181803683370190505b5090505b84156120655761248e600183612d0a565b915061249b600a86612d85565b6124a6906030612c9b565b60f81b8183815181106124bb576124bb612d99565b60200101907effffffffffffffffffffffffffffffffffffffffffffffffffffffffffffff1916908160001a9053506124f5600a86612d56565b945061247d565b61250683836127ed565b61251360008484846126a4565b61092e5760405162461bcd60e51b815260206004820152603260248201527f4552433732313a207472616e7366657220746f206e6f6e20455243373231526560448201527131b2b4bb32b91034b6b83632b6b2b73a32b960711b60648201526084016107dc565b60008181526008602052604090205460ff161561259a5761259a81611ea6565b6000818152600960209081526040918290208251608081018452815460ff161515815260018201549281019290925260028101546001600160a01b0390811693830184905260039091015460608301529091908416141561167e5760608101516040516001600160a01b0385169180156108fc02916000818181858888f1935050505015801561262e573d6000803e3d6000fd5b50506040805160808101825260008082526020808301858152838501838152606085018481529684526009909252939091209151825460ff19169015151782559151600182015590516002820180546001600160a01b0319166001600160a01b0390921691909117905590516003909101555050565b60006001600160a01b0384163b156127e257604051630a85bd0160e11b81526001600160a01b0385169063150b7a02906126e8903390899088908890600401612daf565b6020604051808303816000875af1925050508015612723575060408051601f3d908101601f1916820190925261272091810190612deb565b60015b6127c8573d808015612751576040519150601f19603f3d011682016040523d82523d6000602084013e612756565b606091505b5080516127c05760405162461bcd60e51b815260206004820152603260248201527f4552433732313a207472616e7366657220746f206e6f6e20455243373231526560448201527131b2b4bb32b91034b6b83632b6b2b73a32b960711b60648201526084016107dc565b805181602001fd5b6001600160e01b031916630a85bd0160e11b149050612065565b506001949350505050565b6001600160a01b0382166128435760405162461bcd60e51b815260206004820181905260248201527f4552433732313a206d696e7420746f20746865207a65726f206164647265737360448201526064016107dc565b6000818152600260205260409020546001600160a01b0316156128a85760405162461bcd60e51b815260206004820152601c60248201527f4552433732313a20746f6b656e20616c7265616479206d696e7465640000000060448201526064016107dc565b6128b46000838361257a565b6001600160a01b03821660009081526003602052604081208054600192906128dd908490612c9b565b909155505060008181526002602052604080822080546001600160a01b0319166001600160a01b03861690811790915590518392907fddf252ad1be2c89b69c2b068fc378daa952ba7f163c4a11628f55a4df523b3ef908290a45050565b6001600160e01b03198116811461295157600080fd5b50565b60006020828403121561296657600080fd5b81356117668161293b565b60005b8381101561298c578181015183820152602001612974565b8381111561167e5750506000910152565b600081518084526129b5816020860160208601612971565b601f01601f19169290920160200192915050565b602081526000611766602083018461299d565b6000602082840312156129ee57600080fd5b5035919050565b80356001600160a01b0381168114612a0c57600080fd5b919050565b60008060408385031215612a2457600080fd5b612a2d836129f5565b946020939093013593505050565b600080600060608486031215612a5057600080fd5b612a59846129f5565b9250612a67602085016129f5565b9150604084013590509250925092565b600080600060608486031215612a8c57600080fd5b8335925060208401359150612aa3604085016129f5565b90509250925092565b600060208284031215612abe57600080fd5b611766826129f5565b60008060408385031215612ada57600080fd5b612ae3836129f5565b915060208301358015158114612af857600080fd5b809150509250929050565b634e487b7160e01b600052604160045260246000fd5b60008060008060808587031215612b2f57600080fd5b612b38856129f5565b9350612b46602086016129f5565b925060408501359150606085013567ffffffffffffffff80821115612b6a57600080fd5b818701915087601f830112612b7e57600080fd5b813581811115612b9057612b90612b03565b604051601f8201601f19908116603f01168101908382118183101715612bb857612bb8612b03565b816040528281528a6020848701011115612bd157600080fd5b82602086016020830137600060208483010152809550505050505092959194509250565b60008060408385031215612c0857600080fd5b50508035926020909101359150565b60008060408385031215612c2a57600080fd5b612c33836129f5565b9150612c41602084016129f5565b90509250929050565b600181811c90821680612c5e57607f821691505b60208210811415612c7f57634e487b7160e01b600052602260045260246000fd5b50919050565b634e487b7160e01b600052601160045260246000fd5b60008219821115612cae57612cae612c85565b500190565b60008351612cc5818460208801612971565b835190830190612cd9818360208801612971565b7f2e6a736f6e0000000000000000000000000000000000000000000000000000009101908152600501949350505050565b600082821015612d1c57612d1c612c85565b500390565b6000816000190483118215151615612d3b57612d3b612c85565b500290565b634e487b7160e01b600052601260045260246000fd5b600082612d6557612d65612d40565b500490565b6000600019821415612d7e57612d7e612c85565b5060010190565b600082612d9457612d94612d40565b500690565b634e487b7160e01b600052603260045260246000fd5b60006001600160a01b03808716835280861660208401525083604083015260806060830152612de1608083018461299d565b9695505050505050565b600060208284031215612dfd57600080fd5b81516117668161293b56fea2646970667358221220ff3eb607f1e1bee43f6bed4b445b0d5f9abc0082020b92b535fd89f4f607b0ea64736f6c634300080a0033",
  "linkReferences": {},
  "deployedLinkReferences": {}
}